:0200000480007A
:100000006F00000213000000130000001300000046
:100010001300000013000000130000001300000094
:1000200097110000938101B8138101A0170500000A
:1000300013054537970500009385C5366308B5005D
:1000400023200500130545006FF05FFFEF00C01788
:040050006F0000003D
:10005400B7070081130700122390E700A38107006C
:100064002380070063100610638805143308B50065
:10007400B705008103470500930680009357770076
:100084002380F50093E707012380F50083C705006B
:10009400131717009386F6FF93D7170093F71700EB
:1000A400B3E7E70013F7F70FE39A06FC2300E50034
:1000B40013051500E31005FD930700022380F500E6
:1000C400630A0608370700811305000223000700AE
:1000D400130680009306500093D776002300F700A0
:1000E40093E707012300F700834707009396160060
:1000F4001306F6FF93D7170093F71700B3E7D7005B
:1001040093F6F70FE31A06FC13068000930600002B
:1001140093D776002300F70093E707012300F70045
:1001240083470700939616001306F6FF93D717002C
:1001340093F71700B3E7D7009395870193D58541CB
:1001440093F6F70FE31606FC2300A70093F51500BA
:10015400E39E05F6B7070081130700F8A381E700C3
:10016400678000001308800013076000B706008151
:10017400935777002380F60093E707012380F60066
:1001840083C70600131717001308F8FF93D7170047
:1001940093F71700B3E7E70013F7F70FE31A08FC28
:1001A400930700022380F60023800600E39005EC09
:1001B4002380F6006FF01FF1130700022380E7008D
:0401C4006FF05FF980
:1001C800130101EC9306800D232E1112232C8112AA
:1001D800232A911223282113232631132324411380
:1001E8002322511323206113232E7111232C8111F3
:1001F800B7A70700370700832322D7009387071282
:10020800B7060083130650056F0080006380071847
:1002180003A706009387F7FFE31AC7FE9307600555
:1002280023A0F600130BC100130CB0FF37040083A2
:10023800930B0004930A1004130A20009309200466
:1002480013095005330C6C4183270400E3CE07FEE5
:1002580093F7F70F638A770D63ECFB04130700012C
:100268006388E70613070003E390E7FE930710038C
:100278002320F400930700022306F10083270400DB
:10028800E3CE07FEA306F10083270400E3CE07FEB2
:100298002307F10083270400E3CE07FEA307F1003C
:1002A800639C040C930720032320F4006FF0DFF90C
:1002B800638627071307000FE398E7F89307100FE3
:1002C8002320F400B7070080E78007006FF0DFF70E
:1002D800930710012320F40083270400E3CE07FED0
:1002E80013F6F70F93041600930601011307000095
:1002F80083270400E3CE07FE93F7F70F2380F60069
:10030800938616003387E700B307DC001377F70FEF
:10031800E3C0C7FE2320E4006FF01FF393076005D6
:100328002320F4006FF05FF22320540123064101DB
:1003380083270400E3CE07FEA306F1008327040009
:10034800E3CE07FE2307F10083270400E3CE07FE70
:10035800A307F10063960400232034016FF0DFEE59
:10036800130610009385440013050B00EFF01FCE11
:10037800232034016FF05FED130610009305400051
:1003880013050B00EFF09FCC6FF0DFF1E78007005B
:040398006FF05FE9BA
:040000058000000077
:00000001FF
